:100000000C942A000C9447000C9447000C94470071
:100010000C9447000C9447000C94D4010C944700B6
:100020000C9447000C9447000C9447000C94470034
:100030000C9447000C9447000C9447000C94470024
:100040000C9447000C9447000C9447000C94470014
:100050000C94470011241FBECFE5D8E0DEBFCDBF12
:1000600010E0A0E6B0E0EAE2F7E002C005900D92F1
:10007000A437B107D9F710E0A4E7B0E001C01D92A2
:10008000A937B107E1F70E940F030C9493030C9476
:100090000000683008F06DC0413099F5813081F082
:1000A000813018F0823011F516C02AB381E090E05B
:1000B00002C0880F991F6A95E2F7282B2ABB089582
:1000C00027B381E090E002C0880F991F6A95E2F79C
:1000D000282B27BB089524B381E090E002C0880F4D
:1000E000991F6A95E2F7282B24BB089521B381E07C
:1000F00090E002C0880F991F6A95E2F7282B21BB78
:1001000008954423B1F5813089F0813018F08230B0
:1001100029F518C02AB381E090E002C0880F991F2A
:100120006A95E2F7809582238ABB089527B381E020
:1001300090E002C0880F991F6A95E2F780958223AC
:1001400087BB089524B381E090E002C0880F991F17
:100150006A95E2F78095822384BB089521B381E0FC
:1001600090E002C0880F991F6A95E2F7809582237C
:1001700081BB0895843070F4813039F0813018F0FB
:10018000823039F404C06ABB089567BB089564BB2C
:10019000089561BB0895683008F06EC0423008F0E1
:1001A0006BC0413099F5813081F0813018F0823098
:1001B00011F516C02BB381E090E002C0880F991FA3
:1001C0006A95E2F7282B2BBB089528B381E090E0D5
:1001D00002C0880F991F6A95E2F7282B28BB089563
:1001E00025B381E090E002C0880F991F6A95E2F77D
:1001F000282B25BB089522B381E090E002C0880F30
:10020000991F6A95E2F7282B22BB0895813089F067
:10021000813018F0823029F518C02BB381E090E0CE
:1002200002C0880F991F6A95E2F7809582238BBBE5
:10023000089528B381E090E002C0880F991F6A9565
:10024000E2F78095822388BB089525B381E090E092
:1002500002C0880F991F6A95E2F78095822385BBBB
:10026000089522B381E090E002C0880F991F6A953B
:10027000E2F78095822382BB0895843070F4813048
:1002800039F0813018F0823039F404C06BBB089526
:1002900068BB089565BB089562BB0895683010F08F
:1002A00080E00895813039F0813018F0823071F4A7
:1002B00004C089B303C086B301C083B390E002C019
:1002C000959587956A95E2F78170089580B390E0DF
:1002D00002C0959587956A95E2F7817008958430FC
:1002E00010F080E00895813031F0813010F083B358
:1002F000089589B3089586B30895809176008F5F3D
:1003000080937600813031F40E942A0280E00E94BE
:100310001D020895823049F40E94260290937500D0
:100320008093740081E00E941D02089581E065E0E1
:1003300041E00E94CB008AE18A95F1F781E065E017
:1003400040E00E94CB000895109276000E942A029D
:100350000E94960180917600823051F48091740061
:10036000909175006AE370E00E944E03CB010895FE
:10037000FFCFDF93CF9300D0CDB7DEB782E0898384
:1003800081E08A83CE0101960E94FD018DE791E014
:100390000E94180281E065E041E00E9449000F9050
:1003A0000F90CF91DF9108951F920F920FB60F9289
:1003B00011242F933F934F935F936F937F938F936A
:1003C0009F93AF93BF93EF93FF93E0917700F091EA
:1003D0007800309709F00995FF91EF91BF91AF91A7
:1003E0009F918F917F916F915F914F913F912F914D
:1003F0000F900FBE0F901F901895FC0181B3807471
:1004000081BB8CE08FBD9EB58081982B81818295C8
:10041000880F880F807C892B8EBD89B7806289BF49
:100420001DBC1CBC17BC16BC89B7806289BF08956F
:10043000909378008093770008959EB58295880FF9
:10044000880F807C9F7B982B9EBD089526B537B57D
:10045000C90108951DBC1CBC08951FBC1EBC1DBC59
:100460001CBC89B78F7D89BF17BC16BC0895EF925D
:10047000FF921F93182F81E060E041E00E94CB00C3
:1004800081E061E040E00E94CB0080EDE82E87E053
:10049000F82EC7010197F1F781E062E041E00E9488
:1004A000CB00C7010197F1F780E0612F0E943D0169
:1004B00012E0812F8A95F1F781E062E040E00E942E
:1004C000CB001A95F1F71F91FF90EF9008951F93BD
:1004D000CF93DF93EC0110E003C00E9437021F5F4F
:1004E000FE01E10FF11D80818823B9F7DF91CF91E3
:1004F0001F9108950F931F93DF93CF93CDB7DEB76E
:1005000060970FB6F894DEBF0FBECDBF8E010F5FB0
:100510001F4FB8014AE050E00E946203C8010E94E8
:10052000670260960FB6F894DEBF0FBECDBFCF91C5
:10053000DF911F910F9108950F931F93082F81E072
:1005400060E040E00E94CB0081E061E040E00E947A
:10055000CB0012E0812F8A95F1F781E062E041E063
:100560000E94CB00812F8A95F1F780E0602F0E94D6
:100570003D01812F8A95F1F781E062E040E00E9421
:10058000CB001A95F1F71F910F91089581E00E9419
:100590009C020895813049F0813040F0823019F09A
:1005A000833021F402C0605F01C0605C862F8068E8
:1005B0000E949C0208950F931F938A010E94CA0211
:1005C000C8010E9467021F910F9108950F931F9316
:1005D00081E060E041E00E94490081E062E041E0AA
:1005E0000E94490081E061E041E00E94490000E48E
:1005F0001CE9C8010197F1F780E06FEF0E94BA0093
:10060000C8010197F1F788E30E949C028CE00E94E8
:100610009C0281E00E949C021F910F910895EF922D
:10062000FF920F931F93CF93DF938FB780688FBF95
:100630000E94E6020E94B90180E690E00E946702F3
:100640000E94A40187EE93E00E947A028CE690E07B
:100650000E94670200E010E088ECE82EF12C88EBA5
:100660009BE004C0F7013197F1F701970097D1F7AC
:100670000E94A401EC018017910719F488EB9BE01C
:10068000F1CF80E06AE00E94CA02CE010E947A02A5
:100690008FE690E00E9467028E01E1CFAA1BBB1B90
:1006A00051E107C0AA1FBB1FA617B70710F0A61B72
:1006B000B70B881F991F5A95A9F780959095BC0193
:1006C000CD010895FB019F01E8944230C4F045320A
:1006D000B4F44A3029F497FB1EF4909581959F4F0E
:1006E000642F77270E944E03805D8A330CF0895D6A
:1006F0008193CB010097A1F716F45DE2519310822C
:10070000C9010C948303DC01FC01672F71917723ED
:10071000E1F7329704C07C916D9370836291AE17BC
:0A072000BF07C8F30895F894FFCF57
:10072A0044697374616E6365203D2000636D0063E4
:04073A006D2020000E
:00000001FF
